{
  "contractName": "LamboExchange",
  "abi": [
    {
      "constant": true,
      "inputs": [
        {
          "name": "",
          "type": "uint256"
        }
      ],
      "name": "tokens",
      "outputs": [
        {
          "name": "tokenSymbol",
          "type": "string"
        },
        {
          "name": "tokenName",
          "type": "string"
        },
        {
          "name": "tokenAddress",
          "type": "address"
        },
        {
          "name": "currentBuyPrice",
          "type": "uint256"
        },
        {
          "name": "lowestBuyPrice",
          "type": "uint256"
        },
        {
          "name": "currentSellPrice",
          "type": "uint256"
        },
        {
          "name": "highestSellPrice",
          "type": "uint256"
        }
      ],
      "payable": false,
      "stateMutability": "view",
      "type": "function"
    },
    {
      "constant": true,
      "inputs": [],
      "name": "tokensCount",
      "outputs": [
        {
          "name": "",
          "type": "uint256"
        }
      ],
      "payable": false,
      "stateMutability": "view",
      "type": "function"
    },
    {
      "constant": false,
      "inputs": [
        {
          "name": "_tokenSymbol",
          "type": "string"
        },
        {
          "name": "_isBuyOrder",
          "type": "bool"
        },
        {
          "name": "_offerKey",
          "type": "uint256"
        }
      ],
      "name": "cancelOrder",
      "outputs": [
        {
          "name": "",
          "type": "uint256[]"
        },
        {
          "name": "",
          "type": "uint256[]"
        }
      ],
      "payable": false,
      "stateMutability": "nonpayable",
      "type": "function"
    },
    {
      "constant": false,
      "inputs": [
        {
          "name": "_tokenSymbol",
          "type": "string"
        }
      ],
      "name": "getSellOrderBook",
      "outputs": [
        {
          "name": "",
          "type": "uint256[]"
        },
        {
          "name": "",
          "type": "uint256[]"
        }
      ],
      "payable": false,
      "stateMutability": "nonpayable",
      "type": "function"
    },
    {
      "constant": false,
      "inputs": [
        {
          "name": "_tokenSymbol",
          "type": "string"
        }
      ],
      "name": "getBuyOrderBook",
      "outputs": [
        {
          "name": "",
          "type": "uint256[]"
        },
        {
          "name": "",
          "type": "uint256[]"
        }
      ],
      "payable": false,
      "stateMutability": "nonpayable",
      "type": "function"
    },
    {
      "constant": false,
      "inputs": [
        {
          "name": "_tokenSymbol",
          "type": "string"
        },
        {
          "name": "_amount",
          "type": "uint256"
        },
        {
          "name": "_price",
          "type": "uint256"
        }
      ],
      "name": "buyToken",
      "outputs": [],
      "payable": false,
      "stateMutability": "nonpayable",
      "type": "function"
    },
    {
      "constant": false,
      "inputs": [
        {
          "name": "_tokenSymbol",
          "type": "string"
        },
        {
          "name": "_amount",
          "type": "uint256"
        },
        {
          "name": "_price",
          "type": "uint256"
        }
      ],
      "name": "sellToken",
      "outputs": [],
      "payable": false,
      "stateMutability": "nonpayable",
      "type": "function"
    },
    {
      "constant": false,
      "inputs": [],
      "name": "depositEther",
      "outputs": [],
      "payable": true,
      "stateMutability": "payable",
      "type": "function"
    },
    {
      "constant": false,
      "inputs": [
        {
          "name": "_amount",
          "type": "uint256"
        }
      ],
      "name": "withdrawEther",
      "outputs": [],
      "payable": false,
      "stateMutability": "nonpayable",
      "type": "function"
    },
    {
      "constant": true,
      "inputs": [],
      "name": "getEtherBalance",
      "outputs": [
        {
          "name": "",
          "type": "uint256"
        }
      ],
      "payable": false,
      "stateMutability": "view",
      "type": "function"
    },
    {
      "constant": false,
      "inputs": [
        {
          "name": "_tokenSymbol",
          "type": "string"
        },
        {
          "name": "_amount",
          "type": "uint256"
        }
      ],
      "name": "depositToken",
      "outputs": [],
      "payable": false,
      "stateMutability": "nonpayable",
      "type": "function"
    },
    {
      "constant": false,
      "inputs": [
        {
          "name": "_tokenSymbol",
          "type": "string"
        },
        {
          "name": "_amount",
          "type": "uint256"
        }
      ],
      "name": "withdrawToken",
      "outputs": [],
      "payable": false,
      "stateMutability": "nonpayable",
      "type": "function"
    },
    {
      "constant": true,
      "inputs": [
        {
          "name": "_tokenSymbol",
          "type": "string"
        }
      ],
      "name": "getTokenBalance",
      "outputs": [
        {
          "name": "",
          "type": "uint256"
        }
      ],
      "payable": false,
      "stateMutability": "view",
      "type": "function"
    },
    {
      "constant": false,
      "inputs": [
        {
          "name": "_tokenSymbol",
          "type": "string"
        },
        {
          "name": "_tokenName",
          "type": "string"
        },
        {
          "name": "_tokenAddress",
          "type": "address"
        }
      ],
      "name": "addToken",
      "outputs": [],
      "payable": false,
      "stateMutability": "nonpayable",
      "type": "function"
    },
    {
      "constant": true,
      "inputs": [
        {
          "name": "_tokenSymbol",
          "type": "string"
        }
      ],
      "name": "hasToken",
      "outputs": [
        {
          "name": "",
          "type": "bool"
        }
      ],
      "payable": false,
      "stateMutability": "view",
      "type": "function"
    }
  ],
  "bytecode": "0x6060604052341561000f57600080fd5b610dcd8061001e6000396000f3006060604052600436106100db576000357c0100000000000000000000000000000000000000000000000000000000900463ffffffff168063025abd58146100e057806303bc4a271461015157806333ad57e41461024b5780633bed33ce146102b15780634f64b2be146102d45780635ab8ea3314610465578063728ff029146104d4578063851030fe146105ce5780638ea008181461063d57806398ea5fca146106b2578063a64ed8ba146106bc578063c97a413a146106e5578063d43359e81461074b578063ea46193e14610859578063fa3d24f214610882575b600080fd5b34156100eb57600080fd5b61013b600480803590602001908201803590602001908080601f01602080910402602001604051908101604052809392919081815260200183838082843782019150505050505091905050610941565b6040518082815260200191505060405180910390f35b341561015c57600080fd5b6101ac600480803590602001908201803590602001908080601f01602080910402602001604051908101604052809392919081815260200183838082843782019150505050505091905050610948565b604051808060200180602001838103835285818151815260200191508051906020019060200280838360005b838110156101f35780820151818401526020810190506101d8565b50505050905001838103825284818151815260200191508051906020019060200280838360005b8381101561023557808201518184015260208101905061021a565b5050505090500194505050505060405180910390f35b341561025657600080fd5b6102af600480803590602001908201803590602001908080601f0160208091040260200160405190810160405280939291908181526020018383808284378201915050505050509190803590602001909190505061095d565b005b34156102bc57600080fd5b6102d26004808035906020019091905050610961565b005b34156102df57600080fd5b6102f56004808035906020019091905050610964565b6040518080602001806020018873ffffffffffffffffffffffffffffffffffffffff1673ffffffffffffffffffffffffffffffffffffffff16815260200187815260200186815260200185815260200184815260200183810383528a8181546001816001161561010002031660029004815260200191508054600181600116156101000203166002900480156103cc5780601f106103a1576101008083540402835291602001916103cc565b820191906000526020600020905b8154815290600101906020018083116103af57829003601f168201915b505083810382528981815460018160011615610100020316600290048152602001915080546001816001161561010002031660029004801561044f5780601f106104245761010080835404028352916020019161044f565b820191906000526020600020905b81548152906001019060200180831161043257829003601f168201915b5050995050505050505050505060405180910390f35b341561047057600080fd5b6104d2600480803590602001908201803590602001908080601f016020809104026020016040519081016040528093929190818152602001838380828437820191505050505050919080359060200190919080359060200190919050506109c4565b005b34156104df57600080fd5b61052f600480803590602001908201803590602001908080601f016020809104026020016040519081016040528093929190818152602001838380828437820191505050505050919050506109c9565b604051808060200180602001838103835285818151815260200191508051906020019060200280838360005b8381101561057657808201518184015260208101905061055b565b50505050905001838103825284818151815260200191508051906020019060200280838360005b838110156105b857808201518184015260208101905061059d565b5050505090500194505050505060405180910390f35b34156105d957600080fd5b61063b600480803590602001908201803590602001908080601f016020809104026020016040519081016040528093929190818152602001838380828437820191505050505050919080359060200190919080359060200190919050506109de565b005b341561064857600080fd5b610698600480803590602001908201803590602001908080601f016020809104026020016040519081016040528093929190818152602001838380828437820191505050505050919050506109e3565b604051808215151515815260200191505060405180910390f35b6106ba610b05565b005b34156106c757600080fd5b6106cf610b07565b6040518082815260200191505060405180910390f35b34156106f057600080fd5b610749600480803590602001908201803590602001908080601f01602080910402602001604051908101604052809392919081815260200183838082843782019150505050505091908035906020019091905050610b0d565b005b341561075657600080fd5b6107ba600480803590602001908201803590602001908080601f016020809104026020016040519081016040528093929190818152602001838380828437820191505050505050919080351515906020019091908035906020019091905050610b11565b604051808060200180602001838103835285818151815260200191508051906020019060200280838360005b838110156108015780820151818401526020810190506107e6565b50505050905001838103825284818151815260200191508051906020019060200280838360005b83811015610843578082015181840152602081019050610828565b5050505090500194505050505060405180910390f35b341561086457600080fd5b61086c610b29565b6040518082815260200191505060405180910390f35b341561088d57600080fd5b61093f600480803590602001908201803590602001908080601f0160208091040260200160405190810160405280939291908181526020018383808284378201915050505050509190803590602001908201803590602001908080601f0160208091040260200160405190810160405280939291908181526020018383808284378201915050505050509190803573ffffffffffffffffffffffffffffffffffffffff16906020019091905050610b2e565b005b6000919050565b610950610c74565b610958610c74565b915091565b5050565b50565b6000602052806000526040600020600091509050806000019080600101908060020160009054906101000a900473ffffffffffffffffffffffffffffffffffffffff16908060040154908060050154908060070154908060080154905087565b505050565b6109d1610c74565b6109d9610c74565b915091565b505050565b600080600190505b60015481111515610afa57826040518082805190602001908083835b602083101515610a2c5780518252602082019150602081019050602083039250610a07565b6001836020036101000a0380198251168184511680821785525050505050509050019150506040518091039020600019166000808381526020019081526020016000206000016040518082805460018160011615610100020316600290048015610acd5780601f10610aab576101008083540402835291820191610acd565b820191906000526020600020905b815481529060010190602001808311610ab9575b50509150506040518091039020600019161415610aed5760019150610aff565b80806001019150506109eb565b600091505b50919050565b565b60015481565b5050565b610b19610c74565b610b21610c74565b935093915050565b600090565b610b36610c88565b610b3f846109e3565b151515610b4b57600080fd5b60e0604051908101604052808581526020018481526020018373ffffffffffffffffffffffffffffffffffffffff168152602001600081526020016000815260200160008152602001600081525090506001600081548092919060010191905055508060008060015481526020019081526020016000206000820151816000019080519060200190610bde929190610ce8565b506020820151816001019080519060200190610bfb929190610ce8565b5060408201518160020160006101000a81548173ffffffffffffffffffffffffffffffffffffffff021916908373ffffffffffffffffffffffffffffffffffffffff160217905550606082015181600401556080820151816005015560a0820151816007015560c0820151816008015590505050505050565b602060405190810160405280600081525090565b60e060405190810160405280610c9c610d68565b8152602001610ca9610d68565b8152602001600073ffffffffffffffffffffffffffffffffffffffff168152602001600081526020016000815260200160008152602001600081525090565b828054600181600116156101000203166002900490600052602060002090601f016020900481019282601f10610d2957805160ff1916838001178555610d57565b82800160010185558215610d57579182015b82811115610d56578251825591602001919060010190610d3b565b5b509050610d649190610d7c565b5090565b602060405190810160405280600081525090565b610d9e91905b80821115610d9a576000816000905550600101610d82565b5090565b905600a165627a7a723058207caeec385aa2e3ef55ff2d376cbcd530887d60467dead3dae8b07a5a1e0d72780029",
  "source": "pragma solidity ^0.4.19;\n\ncontract LamboExchange {\n    \n    struct Offer {\n        address who;\n        uint amount;\n    }\n    \n    struct OrderBook {\n        \n        // LinkedList to OrderBook themselves\n        uint higherPrice;\n        uint lowerPrice;\n        \n        // Stack of offers\n        // offersKey points to current offer\n        // offersLength tracks total available offers on stack\n        mapping(uint => Offer) offers;\n        uint offersKey;\n        uint offersLength;\n    }\n    \n    struct Token {\n        \n        // Basic info\n        string tokenSymbol;\n        string tokenName;\n        address tokenAddress;\n        \n        // Price to OrderBook map\n        mapping(uint => OrderBook) buyOrderBook;\n        uint currentBuyPrice;\n        uint lowestBuyPrice;\n        \n        mapping(uint => OrderBook) sellOrderBook;\n        uint currentSellPrice;\n        uint highestSellPrice;\n    }\n   \n    //////////////////////\n    // Exchange\n    //////////////////////\n\n    // All tokens supported by our exchange\n    // We'll refer to each token via id\n    mapping(uint => Token) public tokens;\n    uint public tokensCount;\n    \n    // Ether balances\n    mapping(address => uint) ethBalances;\n    \n    // Token balances\n    // Each address can hold multiple tokens hence a map of a map\n    // address to tokenSymbol to amount map\n    mapping(address => mapping(string => uint)) tokenBalances;\n    \n    //////////////////////\n    // Order Books\n    //////////////////////\n    \n    function cancelOrder(string _tokenSymbol, bool _isBuyOrder, uint _offerKey) public returns (uint[], uint[]) {\n        \n    }\n    \n    function getSellOrderBook(string _tokenSymbol) public returns (uint[], uint[]) {\n        \n    }\n    \n    function getBuyOrderBook(string _tokenSymbol) public returns (uint[], uint[]) {\n        \n    }\n    \n    function buyToken(string _tokenSymbol, uint256 _amount, uint256 _price) public {\n        \n    }\n    \n    function sellToken(string _tokenSymbol, uint256 _amount, uint256 _price) public {\n        \n    }\n    \n    //////////////////////\n    // Ether Management\n    //////////////////////\n    \n    function depositEther() public payable {\n        \n    }\n    \n    function withdrawEther(uint256 _amount) public {\n        \n    }\n    \n    function getEtherBalance() public view returns (uint256) {\n        \n    }\n    \n    //////////////////////\n    // Token Management\n    //////////////////////\n    \n    function depositToken(string _tokenSymbol, uint256 _amount) public {\n        \n    }\n    \n    function withdrawToken(string _tokenSymbol, uint256 _amount) public {\n        \n    }\n    \n    function getTokenBalance(string _tokenSymbol) public view returns (uint256) {\n        \n    }\n    \n    //////////////////////\n    // Admin\n    //////////////////////\n    \n    function addToken(string _tokenSymbol, string _tokenName, address _tokenAddress) public {\n        \n        require(!hasToken(_tokenSymbol));\n        \n        Token memory t = Token({\n                tokenSymbol: _tokenSymbol, \n                tokenName: _tokenName,\n                tokenAddress: _tokenAddress,\n                currentBuyPrice: 0,\n                lowestBuyPrice: 0,\n                currentSellPrice: 0,\n                highestSellPrice: 0\n            });\n        tokensCount++;\n        tokens[tokensCount] = t;\n    }\n    \n    function hasToken(string _tokenSymbol) public view returns (bool) {\n        \n        // Remember our 1st token was added with id as 1\n        for (uint i = 1; i <= tokensCount; i++) {\n            if (keccak256(tokens[i].tokenSymbol) == keccak256(_tokenSymbol)) {\n                return true;\n            }\n        }\n        \n        return false;\n    }\n}",
  "sourcePath": "/Users/vaidesai/Development/git/vaibhavdesai137/lambo-exchange-dapp/contracts/LamboExchange.sol",
  "compiler": {
    "name": "solc",
    "version": "0.4.19+commit.c4cbbb05.Emscripten.clang"
  },
  "schemaVersion": "1.0.1",
  "updatedAt": "2018-02-08T00:08:19.578Z"
}